:020000040000FA
:0400000000000428D0
:0800080083160030880000306F
:100010008900831209143F3088003C200630880094
:100020003C205B3088003C204F3088003C2066300C
:1000300088003C206D3088003C207D3088003C20CA
:10004000073088003C207F3088003C206F308800DB
:100050003C20773088003C207C3088003C203930C0
:1000600088003C205E3088003C20793088003C20AD
:10007000713088003C200B280A30A1000A30A00013
:100080004420A10B3E28080000000000A00B4428DB
:02009000080066
:02400E00723FFF
:00000001FF
